:100FEB00D3EF9400EE940040147D6E7C00ED1D70E9
:0D0FFB00011CED4C70F7EF1F70E61E80E347
:0110080022C5
:100F8000C2B77B46AF031BEF70FAD2B7E4FB30B7B2
:100F9000117F017E00120FEB0BEBD3940540EF7F26
:040FA00000227F01AB
:010FA400222A
:0C0E8300120F807F017E00120FEB7FCC6D
:100E8F00E4FBFAC2B70529E52970020528EF139292
:100E9F00B7752800752906E5291529AC28700215A4
:100EAF00284C70F3D2B7EFC313FF0BBB00010AEB53
:050EBF0064084A70CE3A
:010EC400220B
:100F07007D087C00C2B70FBF0000D2B70FBF00003B
:100F17000FBF0000A2B7E433C43333335480FBE977
:100F2700C3134BF97E007F04EF1FAA0670011E4A08
:0D0F370070F6ED1D70011CED4C70C9AF018E
:010F4400228A
:08106E00120E837F44020E8F75
:08107600120E837FBE020E8FF3
:10100900E4FFFE12106E121076120F078F27120FCF
:0610190007EFFEE527FFD2
:01101F0022AE
:04102000021B000FA0
:10104800438901758CFC758A18D2A9D2AFD28C223B
:100FA500120E3A8E1B8F1C121048AF1CAE1B120E70
:100FB500C58E218F221210098E1D8F1E120C4C1208
:040FC5000DB580E600
:03000B00020F459C
:100F4500C0E0C0D0758CFC758A180520E5207002BC
:100F5500051FD2B1C2B2C3940AE51F9400400675BD
:100F65001F00752000C3E5209522E51F952150043B
:0B0F7500D2B08002C2B0D0D0D0E03279
:040EC5008E238F24C5
:100EC900121009AC06AD07EC120A03E4FBFA7980AB
:100ED900783D1208F8120A3CC3E5249FEE6480F8B5
:100EE900E523648098500DC3EF9524F526EE9523EC
:0D0EF900F5258005E4F525F526AE25AF268C
:010F060022C8
:101034003F065B4F666D7D077F6FBF86DBCFE6EDB6
:04104400FD87FFEF36
:03102400011200B6
:0B105800EF1FAC0670011E4C70F6226A
:040C4C00AB07AA0642
:100C5000C3EA648094805010751340EB1B70011A36
:100C60006303FF6302FF8003E4F513AD03AC02EC02
:100C7000120A038F268E258D248C23E4FFFE7DC867
:100C80007C40AB26AA25A924A8231208F8E4FBFA85
:100C9000F9783F120807120A3CAA06AB077C277DA9
:100CA00010AF03AE02120ACF7E037FE8CFCDCFCEC6
:100CB000CCCE120ACF74342FF58274103EF583E443
:100CC00093F5147C037DE8AF03AE02120ACF7E00D9
:100CD0007F64CFCDCFCECCCE120ACF743E2FF5821B
:100CE00074103EF583E493F5157C007D64AF03AE8C
:100CF00002120ACF7E007F0ACFCDCFCECCCE120A11
:100D0000CF74342FF58274103EF583E493F516AE5C
:100D100002AF037C007D0A120ACF74342DF5827471
:080D2000103CF583E493F51784
:010D280022A8
:100DB500120E3AEF75F00A8490103493F519EF7519
:100DC500F00A84E5F093F51AE4FDEDB40800504D02
:100DD500900DDCF8282873020DF4020DF8020E00C0
:100DE500020E04020E0C020E10020E18020E1CD288
:100DF500A28002C2A2D2A3D2A48022D2A28002C221
:100E0500A2C2A3D2A48016D2A28002C2A2D2A3C239
:100E1500A4800AD2A28002C2A2C2A3C2A474132DC6
:100E2500F8E6F5807F647E00121058E4F5800DED3C
:040E35006408709647
:010E39002296
:100FC90000C000F900A400B000990092008200F866
:100FD900008000900088008300C600A10086008E72
:020FE900000006
:0C102700020C000202100000020E000289
:0B106300EF1FAC0670011E4C70F6225F
:100B6800E4F52375900FE590640F7003020C317F54
:100B7800E87E03121058E590640F7003020C31757B
:100B8800900FAF90EF24F5601824FE602214602DBA
:100B980024077035E51125E02408F8E4F608F68006
:100BA80028E51125E02408F87600087601801AE582
:100BB8001125E02408F87600087602800CE5112556
:100BC800E02408F876000876037590F0AF90EF24DB
:100BD80050602624E0602E24F0603624707042AF06
:100BE80011EF25E02408F8E6FC08E6FDEF25E024EF
:100BF80008F8A60408A6058028E51125E02408F8C9
:100C08000874048016E51125E02408F808740880A3
:100C18000AE51125E02408F808740C26F618E436CD
:100C2800F6E50F150F7002150EC3E523648094B224
:100C38005011E59064F0600B7F647E00121063052C
:030C48002380E620
:010C4B002286
:100E3A00D3E50D9400E50C648094804028E50DB557
:100E4A000F11E50CB50E0C120B687FF47E0112101F
:100E5A006380EAE50D150D7002150C0511E5117098
:100E6A00CF051080CBAE08AF097C007D0A120ABDFF
:080E7A00E50B2FFFE50A3EFE27
:010E8200224D
:10080000020AA8E86480F8E933E83360110460F074
:10081000ED33EC337009E8FCE9FDEAFEEBFF22045E
:1008200060DED3EB9FEA9EE99DE8C2E78CF0C2F759
:1008300095F0400CE8CCF8E9CDF9EACEFAEBCFFB25
:10084000120A7385D0F05804700320D5B3E8047001
:10085000075002B2D5020AB292D5EC0460F7E4CC9C
:10086000C0E0C398F8603B94186008400DD0E0FBEE
:10087000020A8AE4FBFAC9FC8028E830E406E4C9ED
:10088000FBE4CAFCE830E305E4C9CACBFCE8540742
:100890006010F8C3E913F9EA13FAEB13FBEC13FC4D
:1008A000D8F130F52FC3E49CFCEF9BFFEE9AFEEDF0
:1008B00099FDD0E0FBEF4E4D4C701222DB03020A93
:1008C000AFEC2CFCEF33FFEE33FEED33FDED30E704
:1008D000EB020A8AEF2BFFEE3AFEED39FDD0E0FB8A
:1008E00050130BBB0003020AB2ED13FDEE13FEEF33
:0808F00013FFEC13FC020A8A5D
:1008F800EC4D6011E8497017ED33EC3304600DE4FA
:10090800FCFFFEFD22E933E8330470F8020AA8125E
:100918000A7358046009E4CC24815006285009025F
:100928000AB2284003020AAFC0E0EB4A7044B9801B
:1009380006D0E0FB020A9EEF4E701CBD8008EBFF5C
:10094800EAFEE9FD80EBE98DF0A4FEE5F00209E19D
:10095800E9CDF9EAFEEBFFEF89F0A4FCE5F0CE89DA
:10096800F0A42EFFE435F0CD89F0A42DFEE435F097
:100978008067EF4E7005BD80D780C3EF8BF0A4ACC5
:10098800F0EE8BF0A42CFCE435F0F8EF8AF0A42C00
:10099800E5F038FCE433CB8DF0A42CFCE5F03BF813
:1009A800EE8AF0A42CFCE5F038F8E433CF89F0A403
:1009B8002CFCE5F038CF3400CE89F0A42FFFE5F009
:1009C8003EFEE433C98DF0A42EFEE5F039CD8AF061
:1009D800A42FFFE5F03EFEE43DFD33D0E0FB5007D9
:1009E8000BBB000F020AB2EC2CFCEF33FFEE33FE18
:0609F800ED33FD020A8A46
:1009FE0075F020800E75F010800575F0087D007E74
:100A0E00007F003392D530D503120B05EC33401026
:100A1E00EF33FFEE33FEED33FDEC33FCD5F0ED227C
:0E0A2E00E5F0247EA2D513CC92E7CDCEFF22B8
:100A3C00EDD2E7CD33EC3392D524814006E4FFFEB2
:100A4C00FDFC22FCE4CFCECDCC24E0501174FF8011
:100A5C00EDC3CC13CCCD13CDCE13CECF13CF0470AE
:070A6C00F030D5DE020B059E
:100A7300E9D2E7C933E833F892D5EDD2E7CD33ECC9
:070A830033FC5002B2D52242
:100A8A00EC30E7100FBF000C0EBE00080DBD0004CD
:100A9A000BEB6014A2D5EB13FCED92E7FD2274FF79
:100AAA00FCFDFEFF22E480F8A2D574FF13FC7D80D2
:030ABA00E480EFE6
:03000000020D29C5
:0C0D2900787FE4F6D8FD758129020D707A
:100ABD00EF8DF0A4A8F0CF8CF0A428CE8DF0A42E4D
:020ACD00FE2207
:100ACF00C2D5EC30E709B2D5E4C39DFDE49CFCEE42
:100ADF0030E715B2D5E4C39FFFE49EFE120B13C39C
:100AEF00E49DFDE49CFC8003120B1330D507C3E497
:060AFF009FFFE49EFE22B1
:0E0B0500C3E49FFFE49EFEE49DFDE49CFC2201
:100D3500020FA5E493A3F8E493A34003F68001F220
:100D450008DFF48029E493A3F85407240CC8C333BF
:100D5500C4540F4420C8834004F456800146F6DF8E
:100D6500E4800B0102040810204080901020E47EEE
:100D7500019360BCA3FF543F30E509541FFEE49383
:100D8500A360010ECF54C025E060A840B8E493A34A
:100D9500FAE493A3F8E493A3C8C582C8CAC583CA75
:100DA500F0A3C8C582C8CAC583CADFE9DEE780BE2D
:0110330000BC
:100B1300BC000BBE0029EF8DF084FFADF022E4CCC6
:100B2300F875F008EF2FFFEE33FEEC33FCEE9DEC8F
:100B3300984005FCEE9DFE0FD5F0E9E4CEFD22EDD5
:100B4300F8F5F0EE8420D21CFEADF075F008EF2F1F
:100B5300FFED33FD4007985006D5F0F222C398FD10
:050B63000FD5F0EA22AD
:00000001FF
